:020000040000FA
:100000000C945D000C9485000C9485000C94850084
:100010000C9485000C9485000C9485000C9485004C
:100020000C9485000C9485000C9485000C9485003C
:100030000C9485000C9485000C9485000C9485002C
:100040000C9486020C9485000C9454020C942E029D
:100050000C9485000C9485000C9485000C9485000C
:100060000C9485000C94850000000008000201003B
:100070000003040700000000000000000000000072
:10008000250028002B0000000000240027002A0083
:10009000040404040404040402020202020203032E
:1000A0000303030301020408102040800102040836
:1000B0001020010204081020F80311241FBECFEF06
:1000C000D8E0DEBFCDBF11E0A0E0B1E0E0E0FBE0B2
:1000D00002C005900D92A831B107D9F721E0A8E13F
:1000E000B1E001C01D92A23CB207E1F710E0CDE5FE
:1000F000D0E004C02197FE010E947805CC35D107DD
:10010000C9F70E94D0020C947E050C940000AF92B7
:10011000BF92CF92DF92EF92FF920F931F93CF93F4
:10012000DF936C017B018B01040F151FEB015E0156
:10013000AE18BF08C017D10759F06991D601ED91EB
:10014000FC910190F081E02DC6010995892B79F78A
:10015000C501DF91CF911F910F91FF90EF90DF903C
:10016000CF90BF90AF900895FC01538D448D252F03
:1001700030E0842F90E0821B930B541710F0CF9641
:10018000089501970895FC01918D828D981761F073
:10019000A28DAE0FBF2FB11D5D968C91928D9F5F8A
:1001A0009F73928F90E008958FEF9FEF0895FC0169
:1001B000918D828D981731F0828DE80FF11D858D1C
:1001C00090E008958FEF9FEF0895FC01918D228DAF
:1001D000892F90E0805C9F4F821B91098F73992734
:1001E000089585E291E00E94E50021E0892B09F461
:1001F00020E0822F089580E090E0892B29F00E9472
:10020000F10081110C9400000895FC01A48DA80F49
:10021000B92FB11DA35ABF4F2C91848D90E0019648
:100220008F739927848FA689B7892C93A089B18968
:100230008C91837080648C93938D848D981306C009
:100240000288F389E02D80818F7D80830895EF926D
:10025000FF920F931F93CF93DF93EC0181E0888F80
:100260009B8D8C8D98131AC0E889F989808185FF50
:1002700015C09FB7F894EE89FF896083E889F989F2
:1002800080818370806480839FBF81E090E0DF91F4
:10029000CF911F910F91FF90EF900895F62E0B8D47
:1002A00010E00F5F1F4F0F731127E02E8C8D8E1102
:1002B0000CC00FB607FCFACFE889F989808185FF69
:1002C000F5CFCE010E940501F1CFEB8DEC0FFD2F94
:1002D000F11DE35AFF4FF0829FB7F8940B8FEA8924
:1002E000FB8980818062CFCFCF93DF93EC01888D33
:1002F0008823B9F0AA89BB89E889F9898C9185FDA1
:1003000003C0808186FD0DC00FB607FCF7CF8C912E
:1003100085FFF2CF808185FFEDCFCE010E940501E0
:10032000E9CFDF91CF91089590E0FC01E859FF4FAC
:100330002491FC01EC55FF4F3491FC01E057FF4F35
:10034000E491EE23C9F0222339F0233001F1A8F41F
:10035000213019F1223029F1F0E0EE0FFF1FE458AF
:10036000FF4FA591B4918FB7F894EC91611126C01D
:1003700030953E233C938FBF08952730A9F0283055
:10038000C9F0243049F7809180008F7D03C08091AF
:1003900080008F7780938000DFCF84B58F7784BD16
:1003A000DBCF84B58F7DFBCF8091B0008F778093BA
:1003B000B000D2CF8091B0008F7DF9CF3E2BDACF45
:1003C0008F929F92AF92BF920F931F93CF93DF9321
:1003D000CDB7DEB7A1970FB6F894DEBF0FBECDBF85
:1003E00019A2423008F44AE08E010F5D1F4F842E9F
:1003F000912CB12CA12CA50194010E945605E62F49
:10040000B901CA01EA3044F5E05DD801EE938D01EF
:10041000232B242B252B79F790E080E0109769F0AF
:10042000FD0101900020E9F73197AF014A1B5B0BFA
:10043000BD0185E291E00E948700A1960FB6F89475
:10044000DEBF0FBECDBFDF91CF911F910F91BF9047
:10045000AF909F908F900895E95CD7CF1F920F9235
:100460000FB60F9211242F933F934F935F936F9387
:100470007F938F939F93AF93BF93EF93FF9385E207
:1004800091E00E940501FF91EF91BF91AF919F9183
:100490008F917F916F915F914F913F912F910F902D
:1004A0000FBE0F901F9018951F920F920FB60F92CC
:1004B00011242F938F939F93EF93FF93E091350136
:1004C000F09136018081E0913B01F0913C0182FD89
:1004D0001BC0908180913E018F5F8F7320913F01FF
:1004E000821741F0E0913E01F0E0EB5DFE4F958F09
:1004F00080933E01FF91EF919F918F912F910F90EB
:100500000FBE0F901F9018958081F4CF1F920F920D
:100510000FB60F9211242F933F938F939F93AF9316
:10052000BF9380911D0190911E01A0911F01B09178
:10053000200130911C0123E0230F2D3758F501963F
:10054000A11DB11D20931C0180931D0190931E01DC
:10055000A0931F01B093200180911801909119017F
:10056000A0911A01B0911B010196A11DB11D8093AC
:10057000180190931901A0931A01B0931B01BF9128
:10058000AF919F918F913F912F910F900FBE0F9040
:100590001F90189526E8230F0296A11DB11DD2CFFA
:1005A000789484B5826084BD84B5816084BD85B54E
:1005B000826085BD85B5816085BD80916E0081605A
:1005C00080936E0010928100809181008260809300
:1005D0008100809181008160809381008091800002
:1005E0008160809380008091B10084608093B1002D
:1005F0008091B00081608093B00080917A00846027
:1006000080937A0080917A00826080937A00809152
:100610007A00816080937A0080917A00806880936C
:100620007A001092C100E1EBF0E02491EDE9F0E0F6
:100630008491882399F090E0880F991FFC01EA5774
:10064000FF4FA591B491FC01E458FF4F859194911F
:100650008FB7F894EC91E22BEC938FBFE0913501CA
:10066000F091360182E08083E0913101F091320116
:100670001082E0913301F09134018FEC808310926D
:100680003D01E0913901F0913A0186E08083E091EB
:100690003701F0913801808180618083E0913701DA
:1006A000F0913801808188608083E0913701F0917A
:1006B0003801808180688083E0913701F0913801B2
:1006C00080818F7D808300E010E0C0900001D09099
:1006D0000101D0922401C0922301E0902301F09007
:1006E0002401C0912101D091220122E0E216F104FF
:1006F0002CF161E08DE00E949401C230D10540F000
:10070000CE01880F991F880F991F05970197F1F760
:1007100060E08DE00E949401C230D10538F0CC0F2A
:10072000DD1FCC0FDD1F25972197F1F781E0E81A37
:10073000F108F0922401E0922301CFCFB6010D2CF5
:10074000000C880B990B0E94CA0425EFC21621E009
:10075000D2060CF441C02196D0932201C09321010E
:1007600020E030E040E250E40E9425040E94920420
:100770007093010160930001C0902101D09022018B
:100780000D2C000CEE08FF084AE0C701B601F7FE89
:100790000DC06DE285E291E00E9427016627772770
:1007A000CB016C197D098E099F094AE00E94E00186
:1007B00042E050E064E171E085E291E00E94870050
:1007C0000115110509F481CF0E94F100882309F475
:1007D0007CCF0E94000079CF2197D0932201C09353
:1007E000210120E030E040E250E40E942604BECF28
:1007F000E5E2F1E01382128288EE93E0A0E0B0E03F
:1008000084839583A683B78386E091E09183808378
:1008100085EC90E09587848784EC90E097878687C5
:1008200080EC90E0918B808B81EC90E0938B828BBD
:1008300082EC90E0958B848B86EC90E0978B868B96
:10084000118E128E138E148E08955058BB27AA272E
:100850000E943D040C941C050E940E0538F00E9475
:10086000150520F039F49F3F19F426F40C940B057C
:100870000EF4E095E7FB0C940505E92F0E942D0589
:1008800058F3BA17620773078407950720F079F4C5
:10089000A6F50C944F050EF4E0950B2EBA2FA02D63
:1008A0000B01B90190010C01CA01A0011124FF271D
:1008B000591B99F0593F50F4503E68F11A16F04018
:1008C000A22F232F342F4427585FF3CF4695379517
:1008D0002795A795F0405395C9F77EF41F16BA0BDC
:1008E000620B730B840BBAF09150A1F0FF0FBB1F8A
:1008F000661F771F881FC2F70EC0BA0F621F731FD3
:10090000841F48F4879577956795B795F7959E3F2F
:1009100008F0B0CF9395880F08F09927EE0F9795C0
:10092000879508950E9499046894B1110C9450051C
:1009300008950E94350588F09F5798F0B92F9927A0
:10094000B751B0F0E1F0660F771F881F991F1AF0BA
:10095000BA95C9F714C0B13091F00E944F05B1E0CB
:1009600008950C944F05672F782F8827B85F39F0CA
:10097000B93FCCF3869577956795B395D9F73EF453
:1009800090958095709561957F4F8F4F9F4F0895FB
:10099000E89409C097FB3EF4909580957095619519
:1009A0007F4F8F4F9F4F9923A9F0F92F96E9BB27CF
:1009B0009395F695879577956795B795F111F8CF4B
:1009C000FAF4BB0F11F460FF1BC06F5F7F4F8F4FB6
:1009D0009F4F16C0882311F096E911C0772321F0AC
:1009E0009EE8872F762F05C0662371F096E8862F44
:1009F00070E060E02AF09A95660F771F881FDAF79B
:100A0000880F9695879597F9089597F99F6780E8DD
:100A100070E060E008959FEF80EC089500240A9450
:100A20001616170618060906089500240A941216C9
:100A30001306140605060895092E0394000C11F4FC
:100A4000882352F0BB0F40F4BF2B11F460FF04C0A9
:100A50006F5F7F4F8F4F9F4F089557FD9058440F02
:100A6000551F59F05F3F71F04795880F97FB991F0D
:100A700061F09F3F79F087950895121613061406CA
:100A8000551FF2CF4695F1DF08C016161706180657
:100A9000991FF1CF86957105610508940895E89432
:100AA000BB2766277727CB0197F90895A1E21A2E75
:100AB000AA1BBB1BFD010DC0AA1FBB1FEE1FFF1F02
:100AC000A217B307E407F50720F0A21BB30BE40B52
:100AD000F50B661F771F881F991F1A9469F7609599
:100AE0007095809590959B01AC01BD01CF01089553
:100AF000EE0FFF1F0590F491E02D0994F894FFCFBD
:100B0000E8030000000027018700B4007401E5003D
:080B1000C300D7000D0A00002C
:107E0000112484B714BE81FFF0D085E080938100F7
:107E100082E08093C00088E18093C10086E0809377
:107E2000C20080E18093C4008EE0C9D0259A86E02C
:107E300020E33CEF91E0309385002093840096BBD3
:107E4000B09BFECF1D9AA8958150A9F7CC24DD24C4
:107E500088248394B5E0AB2EA1E19A2EF3E0BF2EE7
:107E6000A2D0813461F49FD0082FAFD0023811F036
:107E7000013811F484E001C083E08DD089C08234E0
:107E800011F484E103C0853419F485E0A6D080C0E4
:107E9000853579F488D0E82EFF2485D0082F10E0AE
:107EA000102F00270E291F29000F111F8ED06801E7
:107EB0006FC0863521F484E090D080E0DECF843638
:107EC00009F040C070D06FD0082F6DD080E0C81688
:107ED00080E7D80618F4F601B7BEE895C0E0D1E017
:107EE00062D089930C17E1F7F0E0CF16F0E7DF06D8
:107EF00018F0F601B7BEE89568D007B600FCFDCFD4
:107F0000A601A0E0B1E02C9130E011968C91119780
:107F100090E0982F8827822B932B1296FA010C0160
:107F200087BEE89511244E5F5F4FF1E0A038BF0790
:107F300051F7F601A7BEE89507B600FCFDCF97BE46
:107F4000E89526C08437B1F42ED02DD0F82E2BD052
:107F50003CD0F601EF2C8F010F5F1F4F84911BD097
:107F6000EA94F801C1F70894C11CD11CFA94CF0C13
:107F7000D11C0EC0853739F428D08EE10CD085E9AC
:107F80000AD08FE07ACF813511F488E018D01DD067
:107F900080E101D065CF982F8091C00085FFFCCF94
:107FA0009093C60008958091C00087FFFCCF809118
:107FB000C00084FD01C0A8958091C6000895E0E648
:107FC000F0E098E1908380830895EDDF803219F02E
:107FD00088E0F5DFFFCF84E1DECF1F93182FE3DFCA
:107FE0001150E9F7F2DF1F91089580E0E8DFEE27F6
:047FF000FF270994CA
:027FFE00040479
:00000001FF
